:0C006A00E4F5C275C3FF75C6FFF5C722A0
:10003A00900000AF82AE83E4FCFD7BE87AFDF9F81C
:09004A00D31200544003A380EA24
:01005300228A
:1000030012006A8018A2B0920030001612003AE57E
:100013009025E0F59012003AE590B480E8759001E0
:1000230080E312003AE590C313F59012003AE5908D
:0700330070D375908080CEB0
:0300000002007685
:0C007600787FE4F6D8FD758120020003BD
:10005400EB9FF5F0EA9E42F0E99D42F0EC6480C823
:0600640064809845F022C3
:00000001FF
