:03000F00010800E5
:1001680053C21043C30FE4F590D294D288D28A4385
:0C017800B80143B705D2A8D2AAD2AF222A
:09000600C290C291D292D2932261
:0901AA00D290C291C292D29322BC
:0901B300C290D291D292C29322B3
:0601480012000612014E38
:10014E00900000AF82AE83E4FCFD7BE87AFDF9F807
:09015E00D31201844003A380EADE
:010167002275
:10019A0012016830940512014E80F812000680F3AD
:030003000200A256
:1000A200C0E0C0F0C083C082C0D075D000C000C024
:1000B20001C002C003C004C005C006C007309415C9
:1000C200E50864026004E508700E1201481201AAF4
:1000D2007508018003120006D007D006D005D004AF
:1000E200D003D002D001D000D0D0D082D083D0F0C3
:0300F200D0E03229
:030013000200F5F3
:1000F500C0E0C0F0C083C082C0D075D000C000C0D1
:1001050001C002C003C004C005C006C00730941575
:10011500E50864016004E508700E1201481201B398
:100125007508028003120006D007D006D005D0045A
:10013500D003D002D001D000D0D0D082D083D0F06F
:03014500D0E032D5
:03000000020016E5
:0C001600787FE4F6D8FD75810802005DDB
:10018400EB9FF5F0EA9E42F0E99D42F0EC6480C8F2
:0601940064809845F02292
:1000220002019AE493A3F8E493A34003F68001F259
:1000320008DFF48029E493A3F85407240CC8C333DF
:10004200C4540F4420C8834004F456800146F6DFAE
:10005200E4800B010204081020408090000FE47E2F
:10006200019360BCA3FF543F30E509541FFEE493A3
:10007200A360010ECF54C025E060A840B8E493A36A
:10008200FAE493A3F8E493A3C8C582C8CAC583CA95
:10009200F0A3C8C582C8CAC583CADFE9DEE780BE4D
:0100120000ED
:00000001FF
